:020000040000FA
:060000009DEF10F012005C
:020006001200E6
:0600080004EF08F01200F5
:02000E000000F0
:040010000000010AE1
:060018000CEF08F01200DD
:02001E000100DF
:0C0020000E000000F900000006000000C7
:04002C00DACFE4FF44
:10003000E2CFDAFFE9CFE4FFEACFE4FFF6CFE4FF57
:10004000F7CFE4FFF5CFE4FFF3CFE4FFF4CFE4FF15
:10005000FACFE4FF00EE00F0140EE80403E3EECF65
:10006000E4FFFBD700EE14F0040EE80403E3EECF48
:10007000E4FFFBD7E652F2A407D0F294D59E920E8D
:10008000D66EFE0ED76ED58E63EC08F0E55200EE0C
:1000900017F0040EE80403E3E5CFEDFFFBD700EE15
:1000A00013F0140EE80403E3E5CFEDFFFBD7E5CF33
:1000B000FAFFE5CFF4FFE5CFF3FFE5CFF5FFE5CF9E
:1000C000F7FFE5CFF6FFE5CFEAFFE5CFE9FFE5CFA4
:1000D000DAFF1100D8CFE4FFE0CFE4FFE46EDACF1F
:1000E000E4FFE2CFDAFFE652E552E5CFDAFFE55072
:1000F000E5CFE0FFE5CFD8FF1000D9CFE6FFE1CF95
:10010000D9FFE6520001E26BE36BE66BB40EE56FDC
:10011000E76B00010A0EFE6F0001E86B24D8E7ECE4
:1001200007F0889AD59CD596D59AD594D582D58056
:10013000D58EF294F28A5BEC10F0D5EC03F0D9EC9A
:1001400003F0829E40D80401440ED8803C55020E34
:100150003D5502E2888E01D0889EF4D7E552E552E3
:10016000E7CFD9FF1200D9CFE6FFE1CFD9FF020ECA
:10017000E126580EDE6E020EDD6E0F0EC1129B8C54
:10018000DFCF14F0DF06010EDBCF15F001E2DB0656
:100190001450151001E0F4D7C088C168C268C09837
:1001A0000CD80FEC08F0020EE15C02E2E16AE552C5
:1001B000E16EE552E7CFD9FF12000001F96BFA6B4F
:1001C000FB6BFC6B1200D9CFE6FFE1CFD9FFE65203
:1001D000200E0F01005D03E36550020B01E03AD2EF
:1001E0000001E351030A26E0010A1DE0030A13E0BF
:1001F000010A01E03DD0E85104E0010EE36FE86B35
:1002000009D0E7510001FE250001E76FE66B010E02
:10021000E36F828A2DD0E62BE751E65D03E3020E01
:10022000E36F829A25D0E62BE551E65D02E3030EEB
:10023000E36F1ED0E36BE66B000E0001E76EFE1964
:10024000E8AE02D0FE3503D0E750D880FE5507E275
:100250000001E551E75D02E10001FE6908D00001FF
:10026000E75105E10001010EFE6F0001E86F00D0CB
:100270000001F951FA1102E1000E08D0F9C0E9FFBE
:10028000FAC0EAFFEF50800B01E0010E000901E027
:10029000E1D100016051960A01E1C7D1030A01E1F1
:1002A000C2D1120A01E1BAD1010A01E1B1D1030AB6
:1002B00001E161D1070A01E1F4D0030A01E187D02D
:1002C000010A20E0030A0EE0070A09E00D0A05E032
:1002D000010A01E0ACD1829EAAD1828EA8D1DDECC8
:1002E00003F0A5D1830EA06F63C0E6FF62C0E6FFF6
:1002F00061C0E6FFE66AEBEC03F0E552E552E55239
:10030000E55295D1800EA06FE66A38EC04F0E55214
:10031000DF6A100EDF5C37E2EA6ADF34FE0BEA3692
:10032000E96E440EE926040EEA22EECF14F0EFCF78
:1003300015F015C014F0156ADF50E824010FEA6AC1
:10034000A00FE96E000EEA2214C0EFFFEA6ADF3464
:10035000FE0BEA36E96E440EE926040EEA22EECFE1
:1003600014F0EFCF15F0FF0E1416000E1516DF5027
:10037000E824020FEA6AA00FE96E000EEA2214C018
:10038000EFFFDF2AC6D70001FB51FC1102E1000E8E
:1003900008D0FBC0E9FFFCC0EAFFEF50800B01E092
:1003A000010E000913E1400EE66EA00EE66E000E8F
:1003B000E66E010EE66EE66EBCEC0FF0146E050EF6
:1003C000E15E1450F3CFFBF0F4CFFCF030D1810E9E
:1003D000A06F010EE66E38EC04F0E552DF6A100EF5
:1003E000DF5C3BE2100EDF24E96EEA6AD890E93662
:1003F000EA36440EE926040EEA22EECF14F0EFCFDF
:1004000015F015C014F0156ADF50E824010FEA6AF0
:10041000A00FE96E000EEA2214C0EFFF100EDF24D9
:10042000E96EEA6AD890E936EA36440EE926040E07
:10043000EA22EECF14F0EFCF15F0FF0E1416000EE7
:100440001516DF50E824020FEA6AA00FE96E000ECD
:10045000EA2214C0EFFFDF2AC2D70001FB51FC11D2
:1004600002E1000E08D0FBC0E9FFFCC0EAFFEF503C
:10047000800B01E0010E000913E1400EE66EA00EB4
:10048000E66E000EE66E010EE66EE66EBCEC0FF058
:10049000146E050EE15E1450F3CFFBF0F4CFFCF0C8
:1004A000C6D0820EA06F020EE66E38EC04F0E55264
:1004B000DF6A100EDF5C3BE2200EDF24E96EEA6AA1
:1004C000D890E936EA36440EE926040EEA22EECF49
:1004D00014F0EFCF15F015C014F0156ADF50E824C2
:1004E000010FEA6AA00FE96E000EEA2214C0EFFFC6
:1004F000200EDF24E96EEA6AD890E936EA36440E27
:10050000E926040EEA22EECF14F0EFCF15F0FF0E2D
:100510001416000E1516DF50E824020FEA6AA00F29
:10052000E96E000EEA2214C0EFFFDF2AC2D70001F5
:10053000FB51FC1102E1000E08D0FBC0E9FFFCC03A
:10054000EAFFEF50800B01E0010E000913E1400EBD
:10055000E66EA00EE66E000EE66E010EE66EE66E2C
:10056000BCEC0FF0146E050EE15E1450F3CFFBF0FF
:10057000F4CFFCF05CD0BBEC04F00001850EA06F62
:1005800037C414F0156A14C0A1F0040136510001FB
:10059000A26F39C414F0156A14C0A3F004013851D5
:1005A0000001A46F3BC414F0156A14C0A5F0040147
:1005B0003A510001A66F3DC414F0156A14C0A7F0AB
:1005C00004013C510001A86F0001FB51FC1102E144
:1005D000000E08D0FBC0E9FFFCC0EAFFEF50800B23
:1005E00001E0010E000913E1400EE66EA00EE66E7A
:1005F000000EE66E010EE66EE66EBCEC0FF0146EB9
:10060000050EE15E1450F3CFFBF0F4CFFCF00FD0F9
:10061000BBEC04F0889A8296889E09D0BBEC04F06B
:10062000888A828604D0829802D0828800D0400EC8
:10063000E66E600EE66E000EE66EE66A010EE66E8F
:10064000BCEC0FF0146E050EE15E1450F3CFF9F020
:10065000F4CFFAF0E552E552E7CFD9FF12001200CD
:10066000120012001200BFEF06F012001E0EE66E1E
:10067000010EE66E16EC0FF0E552E552400EE66E06
:10068000600EE66E000EE66EE66A010EE66EBCECEB
:100690000FF0146E050EE15E1450F3CFF9F0F4CFB5
:1006A000FAF0120065840001080EED6F070EEE6F80
:1006B000ED07000EEE5BED51EE11FAE165941200CC
:1006C000D9CFE6FFE1CFD9FFFD0EDBCF06F0FE0E5E
:1006D000DBCF07F0010E061801E1075033E0E868B0
:1006E000061802E1E86807182BE0030E061801E17E
:1006F000075024E0040E061801E107501DE0020E29
:10070000061801E1075016E0170E061801E1075020
:100710000FE0160E061801E1075008E0150E061846
:1007200001E1075001E010D0A1DF0FD09EDF0DD016
:100730009ADF0BD096DF09D092DF07D091DF05D08A
:1007400091DF03D0000001D000D0010E00D0E552AF
:06075000E7CFD9FF120003
:0A075600D9CFE6FFE1CFD9FFFE0E78
:10076000DB50010BE8B08680E8A08690FE0EDB40EF
:100770007F0B010BE8B08682E8A08692FE0EDB407C
:10078000E8403F0B010BE8B08684E8A08694FE0E9B
:10079000DB40E840E8401F0B010BE8B08686E8A08C
:1007A0008696E552E7CFD9FF12008794120087841E
:1007B0001200849C1200848C1200836A87828792C4
:1007C000878087908484849484868496848884989F
:1007D000848A849A1200D9CFE6FFE1CFD9FFE6528E
:1007E000836A8782879287808790848484948486B2
:1007F000849684888498848A849AFB0EDB50836E66
:10080000FC0EDB50060A1AE0030A15E0010A10E0AC
:10081000070A0BE0010A06E0030A01E012D0878212
:1008200087920FD0848484940CD08488849809D0D3
:100830008780879006D08486849603D0848A849AA1
:1008400000D0E552E552E7CFD9FF120087828792A8
:10085000120087808790120084848494120084861A
:1008600084961200848884981200848A849A1200E4
:10087000D9CFE6FFE1CFD9FFE652C30EC214C26E54
:100880002C0EC210C26E08D9F3CF36F4F4CF37F471
:10089000DF6A100EDF5C18E2DFCFE6FF5CDFE552B7
:1008A000FBD8F3CF14F0F4CF15F0EA6ADF34FE0B77
:1008B000EA36E96E440EE926040EEA2214C0EEFF81
:1008C00015C0EDFFDF2AE5D7C30EC214C26E280E95
:1008D000C210C26EE1D8F3CF36F4F4CF37F4DF6A3A
:1008E000100EDF5C1AE2DFCFE6FF35DFE552D4D829
:1008F000F3CF14F0F4CF15F0100EDF24E96EEA6A9E
:10090000D890E936EA36440EE926040EEA2214C0ED
:10091000EEFF15C0EDFFDF2AE3D7C30EC214C26E8F
:100920001C0EC210C26EB8D8F3CF36F4F4CF37F431
:10093000DF6A100EDF5C1AE2DFCFE6FF0CDFE55264
:10094000ABD8F3CF14F0F4CF15F0200EDF24E96E0E
:10095000EA6AD890E936EA36440EE926040EEA221D
:1009600014C0EEFF15C0EDFFDF2AE3D7E552E552D4
:10097000E7CFD9FF1200D9CFE6FFE1CFD9FF050EAF
:10098000E126010EDB6A020EDB6A030EDB6A040E4F
:10099000DB6AC30EC214C26EC250C26E7DD8F3CFE2
:1009A00036F4F4CF37F4C30EC214C26E040EC21074
:1009B000C26E72D8F3CF38F4F4CF39F4C30EC21438
:1009C000C26E3C0EC210C26E67D8F3CF14F0F4CFE3
:1009D00015F014C006F015C007F088EC05F0010E04
:1009E00005C0DBFF020E06C0DBFF030E07C0DBFF06
:1009F000040E08C0DBFF010EDBCF14F0020EDBCFCC
:100A000015F0030EDBCF16F0040EDBCF17F0A40EAB
:100A10000A6E700E0B6E7D0E0C6E3F0E0D6E14C0C6
:100A200005F015C006F016C007F017C008F09DECE1
:100A300005F0010E05C0DBFF020E06C0DBFF030E52
:100A400007C0DBFF040E08C0DBFF010EDBCF05F0A3
:100A5000020EDBCF06F0030EDBCF07F0040EDBCF78
:100A600008F00AEC06F006C03AF407C03BF4C30EE7
:100A7000C214C26E3C0EC210C26E0ED8F3CF3CF44C
:100A8000F4CF3DF4050EE15C02E2E16AE552E16E6D
:100A9000E552E7CFD9FF1200D9CFE6FFE1CFD9FF6A
:100AA000020EE126C280DE6ADD6ADECF14F0DDCF01
:100AB00015F0D890155004E6140E145C000E15586D
:100AC00006E20000DF2A010E01E3DB2AEED7000078
:100AD0000000C282C2B2FED7C450166E176A16C09A
:100AE00017F0166AC35000011624146E000E17206A
:100AF000156E14C0F3FF15C0F4FF00D0020EE15CC8
:100B000002E2E16AE552E16EE552E7CFD9FF120059
:100B10000F9E08D00F9E07AE05D0066C071EE86A30
:100B200007220F8E07C001F006C000F0136A126A98
:100B30008E0E026E036A55EF06F00F6A91EC06F016
:100B4000A9EC06F00FB639EF06F00FA205D00FB8EA
:100B500039EF06F040EF06F00FAA05D00FB039EFDD
:100B600006F040EF06F00FB002D00FA802D04CEF15
:100B700006F0036A0D500824026EE86A03227E0E16
:100B8000025EE86A035A126A136A006A016A0C502C
:100B90000702F4CF01F0F3CF00F00B500702F3503F
:100BA0001326F4500022000E01220C500602F350CE
:100BB0001326F4500022000E01220A500702F350BF
:100BC0001226F4501322000E002201220B500602BE
:100BD000F3501226F4501322000E002201220C5072
:100BE0000502F3501226F4501322000E00220122B7
:100BF0000A500602F4501226000E1322002201228F
:100C00000B500502F4501226000E1322002201227E
:100C100055EF06F00F6A91EC06F00FB614EF06F0F0
:100C20000FA20ED00FB405D07F0E076EFF0E066E1A
:100C30001FD0800E076E066A1BD0076A066A18D09E
:100C40000FB0FBD78F0E0860EDD77E0E0864F5D786
:100C50008E0E085C05E0D89007320632082AF8D7D5
:100C60000FA406D0066C071EE86A072207AEE5D778
:100C700012007F0E086EFF0E076E066E056E1200E4
:100C80007F0E0FBEFF0E086E02D07F0E086E800E24
:100C9000076E066A056AF3D70FAE04D0800E086EA1
:100CA000076AF7D7086A076AF4D7015000101310D3
:100CB0001210F8E003BEF0D701BE0CD002500310B2
:100CC000EBE0D89012361336003601360206D8A073
:100CD0000306F2D70350D4E10228D2E012AE11D0BD
:100CE0007F0E121402E113A00CD0132AE86A00222E
:100CF000012207E3D880013200321332022A02288F
:100D0000BFE00250C9E013C005F000C006F0013496
:100D1000076E0230086E0732089E0FBE088E3FEF46
:100D200006F00736083602E30F840F7E06E10F80D7
:100D3000086A076A066A056A1200082803E0D88074
:100D400007321200D890073202E10F8212000F869C
:100D500012000C360D3602E30F8C0F7E06E10F8871
:100D60000D6A0C6A0B6A0A6A12000D2803E0D8802B
:0E0D70000C321200D8900C32EAE10F8A120009
:020D7E0004016E
:100D800020511F0B010801E06DD0245101E06AD011
:100D9000060E215D28E12351230A21E0010A11E01A
:100DA000030A01E020D00F0101050AE10F018E0EB8
:100DB000116F0E0E126F090E146F156BC00E136FAC
:100DC00012D00F0101050AE10F010B0E116F0F0E7A
:100DD000126F1D0E146F156BC00E136F04D00F0130
:100DE000800E136F00D004012051600BE842E842EE
:100DF000E842E842E842010801E034D021510B0A00
:100E00002BE0080A1EE0090A16E0080A09E00B0AAE
:100E100005E0080A01E026D026D824D025D822D023
:100E20000F01250E116F0F0E126F010E146F156B4F
:100E3000C10E136F17D00F01800E136F23C425FF4F
:100E400011D00F01260E116F0F0E126F010E146FCD
:100E5000156B810E136F06D00F01800E136F22C425
:0A0E600026FF00D01200120012005D
:060E6A001201000200006D
:100E70000008D80410100200010200010902290034
:100E8000010100C032090400000203000000092132
:100E900011010001221D0007058103400001070523
:100EA0000103400001040309043403420072007589
:100EB000007300680065006C0020004D0061006E4A
:100EC00000750066006100630074007500720069BF
:100ED000006E00670020002000200020002E035537
:100EE00000480054002000500043002000540065DA
:100EF000007300740065007200200056003000305E
:100F000000300032002000200020000600FF090110
:100F1000A10119012940150026FF0075089540819F
:100F200002190129409102C07C0EA50EA90EDD0E0A
:100F30001E0EF66E000EF76E000EF86E0001090030
:100F4000F550F46F0900F550F56F03E1F46701D037
:100F50003DD00900F550EF6F0900F550F06F090022
:100F6000F550F16F09000900F550E96E0900F550E0
:100F7000EA6E090009000900F550F26F0900F5500A
:100F8000F36F09000900F6CFF6F0F7CFF7F0F8CFCE
:100F9000F8F0EFC0F6FFF0C0F7FFF1C0F8FF000176
:100FA000F25302E1F35307E00900F550EE6EF20749
:100FB000F8E2F307F9D7F6C0F6FFF7C0F7FFF8C07D
:0E0FC000F8FF0001F407000EF55BBFD712002A
:020FCE00230EF0
:100FD000926EC00E936E010E946E956A966A976833
:100FE000F00E986EC00E996E9A6AC098010EC26E8D
:100FF0008E0EC16EC088C16AC26AC09888948298F9
:061000008296889E12009A
:0610080016EF00F01200DB
:061018006AEF00F0120077
:02101E00D9CF28
:10102000E6FFE1CFD9FFE652636A626A658C659C90
:101030000F015E6B000EE66EE66AE66A4D0EE66E26
:101040000F0EE66E73EC10F0146E050EE15E145098
:10105000DF6ADF50146E156A080E145C000E155816
:1010600010E2DF50040DF3CFE9FFF4CFEAFF000EEA
:10107000E926040EEA22EE6AEE6AEE6AEE6ADF2ADA
:10108000E8D70F01160E4C6F62A60CD0030EE66E69
:10109000620EE66E0F0EE66E35EC10F0E552E5528C
:1010A000E552F2D70F01136B186B196B1A6B659829
:1010B000080E0B6F040E0C6F016B006BE552E552CE
:1010C000E7CFD9FF1200D9CFE6FFE1CFD9FFE65233
:1010D000A1980F01000509E165BA07D0626A0F0106
:1010E0005C815C890F01020E006F6250040B10E0FE
:1010F0000F015C51040B0CE0020EE66E620EE66E10
:101100000F0EE66E35EC10F0E552E552E552EDD8E3
:1011100065B2A5D06250010B1CE00F015C51010BC0
:1011200018E07DDF0F01040E006F0401200E026F36
:10113000040E036F080E016F006B8C0E0013E66A3D
:10114000620EE66E0F0EE66E35EC10F0E552E552DB
:10115000E5526250100B10E00F015C51100B0CE0D7
:10116000A7D8040EE66E620EE66E0F0EE66E35EC44
:1011700010F0E552E552E5526250400B1EE00F01BF
:101180005C51400B1AE0010EE66EE66A000EE66E58
:10119000E66A020EE66EE66A60EC03F0146E060E76
:1011A000E15E1450060EE66E620EE66E0F0EE66EFF
:1011B00035EC10F0E552E552E5526250200B05E0A7
:1011C0000F015C51200B01E04FD86250020B13E07D
:1011D0000F015C51020B0FE0010EE66EE66A000E95
:1011E000E66EE66AE668E66860EC03F0146E060EEA
:1011F000E15E1450636A040E0F01005D01E22FD01E
:101200000F015CA72CD0DF6A040EDF5C28E262A627
:1012100025D064CF20FF030EE66E620EE66E0F0E41
:10122000E66E35EC10F0E552E552E552780E0F010E
:10123000201502E17AD810D0000EE66EE66A200E84
:10124000E66E0F0EE66E010EE66EE66A60EC03F0E7
:10125000146E060EE15E1450DF2AD6D700D0E55298
:10126000E552E7CFD9FF12000F014CA115D003CFF3
:10127000E9FF04CFEAFFEF5080080DE10BCFE9FF53
:101280000CCFEAFFEF50840806E103CFE9FF04CF5B
:10129000EAFF8C0EEF6E4C91050EE66E620EE66E66
:1012A0000F0EE66E35EC10F0E552E552E5521200F5
:1012B0000F015C85040EE66E620EE66E0F0EE66EA2
:1012C00035EC10F0E552E552E5526582000EE66E0F
:1012D000E66AE66EE66A040EE66EE66A60EC03F025
:1012E000146E060EE15E145012006592000EE66E5A
:1012F000E66AE66EE66A030EE66EE66A60EC03F006
:10130000146E060EE15E14500F015C9562A40CD0C1
:10131000020EE66E620EE66E0F0EE66E35EC10F013
:10132000E552E552E552F2D71200FD0E0F012015ED
:1013300020E17E0E2015E8407F0B040DF3CF03FF64
:10134000F4CF04FF000E0327040E042303CF05FF90
:1013500004CF06FF057503CFE9FF04CFEAFFEF5086
:101360003C0BE842E8420D0802E109D801D02AD836
:1013700005D0FD0E2015040801E12DD812000BCF79
:10138000E9FF0CCFEAFFEF50800B05E00BCFE9FF40
:101390000CCFEAFFEF6A0F010F6B106B146B156B2C
:1013A000136B07D9000EE66EE66AE66EE66A170E64
:1013B000E66EE66A60EC03F0146E060EE15E145011
:1013C00085EF0CF0020E0F01105D03E1E2EC0DF071
:1013D00001D051D81200D9CFE6FFE1CFD9FFE652B4
:1013E0000BCFE9FF0CCFEAFFEF50400B01E0010EFD
:1013F000DF6E0F010B75080E005D0DE122C45EFF6C
:101400000F015E51000804E20F01100E006F03D0BF
:101410000F01040E006F100528E10BCFE9FF0CCF80
:10142000EAFF020EE926000EEA22280EEE6E040EF6
:10143000ED6E3DDB020E0F010F5D07E10BCFE9FF03
:101440000CCFEAFF840EEF6E0FD0DF5007E10BCF19
:10145000E9FF0CCFEAFFC80EEF6E06D00BCFE9FF15
:101460000CCFEAFF880EEF6E01D005D8E552E552A9
:10147000E7CFD9FF1200D9CFE6FFE1CFD9FF030EA6
:10148000E126020E0F01105D4AE16550100B47E0A6
:1014900003CFE9FF04CFEAFFEE52EF50146E156A56
:1014A000080E141801E115503AE103CFE9FF04CF0B
:1014B000EAFFEF503C0BE842E8420D0830E105CF6F
:1014C000E9FF06CFEAFFEF50800B29E105CFE9FFE6
:1014D00006CFEAFF020EE926000EEA22200EEE6E8B
:1014E000040EED6EDF6ADF50146E156A080E145C90
:1014F000000E155813E2DF50EA6A280FE96E040E59
:10150000EA22EF50E66EDF50EA6A200FE96E040E21
:10151000EA22E552E750EF6EDF2AE5D731D0106BB3
:1015200005CFE9FF06CFEAFFEE52080EEF6E05CFBA
:10153000E9FF06CFEAFF020EE926000EEA22200E9E
:10154000EE6E040EED6E05CFE9FF06CFEAFF8C0EBE
:10155000EF6E0BCFE9FF0CCFEAFFEF6A040E0B1919
:10156000146E0CCF15F0010E14C0DBFF020E15C077
:10157000DBFF010EDBCFE9FF020EDBCFEAFFEF6AF4
:101580000F0118AF0CD01B511C1107E005D01CCF68
:10159000FAFF0F011B51F96EFADF0F01189F030EBE
:1015A000E15C02E2E16AE552E16EE552E7CFD9FF84
:1015B000120004012051600BE842E842E842E84290
:1015C000E842000901E058D021510C0A54E00B0A0E
:1015D00043E00C0A35E0010A26E00B0A22E0020A89
:1015E00020E0030A1CE0080A10E0010A0CE00F0AE0
:1015F00008E0030A01E03FD00F01138F080E006FCF
:101600003BD0C8D839D06FDB37D00F01010E116F36
:101610000F0E126F1381010E146F138F2DD014D97A
:101620002BD02BD829D024510F01116F126B020E31
:1016300011270F0E12231381010E146F138F1CD06C
:101640000F01138F04012451EA6A020FE96E0F0E95
:10165000EA2222C4EFFF10D0000EE66EE66AE66EC4
:10166000E66A160EE66EE66A60EC03F0146E060E8D
:10167000E15E145001D000D01200D9CFE6FFE1CFD7
:10168000D9FF040EE1260401220510E120511F0BB1
:1016900000090CE10F01138F030E0401215D04E129
:1016A0000F01010E1F6F02D00F011F6B04012251A9
:1016B00067E120511F0B020863E124510F0B000961
:1016C0005FE00F01138F040124BF10D024510F0BD2
:1016D000E96EEA6AD890E936EA36070EE9260F0E77
:1016E000EA22EECFDEFFEDCFDDFF0FD024510F0B4E
:1016F000E96EEA6AD890E936EA360B0EE9260F0E53
:10170000EA22EECFDEFFEDCFDDFF030E215D07E124
:10171000DECFE9FFDDCFEAFF840EEF6E31D024513A
:101720000F0B156A4C0F146E0F0E1522020E14C00B
:10173000DBFF030E15C0DBFF020EDBCFE9FF030E5C
:10174000DBCFEAFFEE90ED5224AF0DD0DECFE9FF04
:10175000DDCFEAFFEF6ADF74DECFE9FFDDCFEAFF1E
:10176000400EEF6E0DD0DECFE9FFDDCFEAFF880E31
:10177000EF6EDF74DECFE9FFDDCFEAFFC80EEF6E5C
:10178000040EE15C02E2E16AE552E16EE552E7CF68
:10179000D9FF1200800E0401205D55E10F01C00E3B
:1017A000136F04012351030A2EE0010A0EE0030A1D
:1017B00003E00F01136B47D00F016A0E116F0E0E7D
:1017C000126F120E146F156B3ED02251F66EF76A2F
:1017D000D890F636F736280EF6260F0EF7220900B7
:1017E000F5CF11FF0A00F5CF12FF020E0F01F76AC5
:1017F0001125F66E1251F7220900F5CF14FF0A00E9
:10180000F5CF15FF20D0030E225D1AE22251F66EAD
:10181000F76AD890F636F7362A0EF6260F0EF7221C
:101820000900F5CF11FF0A00F5CF12FF11CFF6FF27
:1018300012CFF7FF0800F5500F01146F156B02D09F
:101840000F01136B00D01200D9CFE6FFE1CFD9FF13
:10185000020EE1260401286B296B20511F0B020A9E
:1018600012E0030A0DE0010A01E03BD00F01138FE3
:10187000040128810F011F0502E10401288331D0F2
:101880000F01138F2ED00F01138F040124BF10D02E
:1018900024510F0BE96EEA6AD890E936EA36070E52
:1018A000E9260F0EEA22EECFDEFFEDCFDDFF0FD0EF
:1018B00024510F0BE96EEA6AD890E936EA360B0E2E
:1018C000E9260F0EEA22EECFDEFFEDCFDDFFDECF01
:1018D000E9FFDDCFEAFFEF50040B02E0010E286FB5
:1018E00000D00F0113AF07D0280E116F040E126F36
:1018F0001381020E146F020EE15C02E2E16AE5520E
:10190000E16EE552E7CFD9FF120065980F0113BFD2
:101910004AD018AF28D0020E106F0BCFE9FF0CCFC2
:10192000EAFFEE52EF6A0BCFE9FF0CCFEAFFC80ED9
:10193000EF6E05CFE9FF06CFEAFFEE52080EEF6E1D
:1019400005CFE9FF06CFEAFF020EE926000EEA22E4
:10195000280EEE6E040EED6E05CFE9FF06CFEAFF0E
:10196000C80EEF6E1FD005CFE9FF06CFEAFFEE529B
:10197000080EEF6E05CFE9FF06CFEAFF020EE9265B
:10198000000EEA22200EEE6E040EED6E05CFE9FF8A
:1019900006CFEAFF8C0EEF6E0BCFE9FF0CCFEAFF0C
:1019A000840EEF6E83D018BF81D0040120AF56D0D3
:1019B0000F0114510401265D0F011551040127592F
:1019C00004E226C414FF27C415FF71D80F01010ECD
:1019D000106F05CFE9FF06CFEAFFEE52080EEF6E5B
:1019E00005CFE9FF06CFEAFF020EE926000EEA2244
:1019F000200EEE6E040EED6E05CFE9FF06CFEAFF76
:101A0000800EEF6E03CFE9FF04CFEAFFEE52080E1F
:101A1000EF6E03CFE9FF04CFEAFF020EE926000EC6
:101A2000EA22200EEE6E040EED6E03CFE9FF04CF26
:101A3000EAFF800EEF6E0BCFE9FF0CCFEAFF020E3C
:101A4000E926000EEA22280EEE6E040EED6E0BCF94
:101A5000E9FF0CCFEAFFC80EEF6E28D00F01020E8F
:101A6000106F0BCFE9FF0CCFEAFFEE52EF6A0BCFFE
:101A7000E9FF0CCFEAFFC80EEF6E05CFE9FF06CFF6
:101A8000EAFFEE52080EEF6E05CFE9FF06CFEAFF40
:101A9000020EE926000EEA22280EEE6E040EED6E0E
:101AA00005CFE9FF06CFEAFFC80EEF6E1200D9CFCF
:101AB000E6FFE1CFD9FF020EE1260F01080E145D0B
:101AC000000E15590EE214CFDEFF15CFDDFF0F51CA
:101AD00003E1010E0F6F04D00F0502E1020E0F6F3C
:101AE00003D0080EDE6EDD6A0BCFE9FF0CCFEAFFF4
:101AF000EF920BCFE9FF0CCFEAFFEF900BCFE9FF9E
:101B00000CCFEAFF010EDB50EF120BCFE9FF0CCF39
:101B1000EAFFEE52DFCFEFFF000EDB50145F010E45
:101B2000DB50155B280E1D6F040E1E6F13B121D004
:101B3000D9CFE9FFDACFEAFFEE50ED1019E011CF6F
:101B4000F6FF12CFF7FF112B000E12230800F550FD
:101B5000E66E1DCFE9FF1ECFEAFF1D2B000E1E23F0
:101B6000E552E750EF6EDF06010E01E2DB06E0D73B
:101B70001FD0D9CFE9FFDACFEAFFEE50ED1018E021
:101B800011CFE9FF12CFEAFF112B000E1223EF5005
:101B9000E66E1DCFE9FF1ECFEAFF1D2B000E1E23B0
:101BA000E552E750EF6EDF06010E01E2DB06E1D7FA
:101BB000020EE15C02E2E16AE552E16EE552E7CF36
:101BC000D9FF1200D9CFE6FFE1CFD9FF020EE126FF
:101BD00003CFE9FF04CFEAFFEE52EFCFDFFFDFCF05
:101BE00014F014500F01195D000E1A5903E219CFB9
:101BF000DFFF09D0DF50146E156A1450195D196F9C
:101C000015501A591A6F010EDB6ADF50F36E010E80
:101C1000DBCFF4FFF350F45C16E2010EDB50EA6A0E
:101C2000280FE96E040EEA22EF50E66E16CFE9FFA8
:101C300017CFEAFF162B000E1723E552E750EF6E81
:101C4000010EDB2AE2D7000ED8801955000E1A5576
:101C500028E205CFE9FF06CFEAFFEE52080EEF6E4D
:101C600005CFE9FF06CFEAFF020EE926000EEA22C1
:101C7000280EEE6E040EED6E03CFE9FF04CFEAFFEF
:101C8000EF50400B07E105CFE9FF06CFEAFFC80E92
:101C9000EF6E06D005CFE9FF06CFEAFF880EEF6EA4
:101CA00018D005CFE9FF06CFEAFF020EE926000EA5
:101CB000EA22200EEE6E040EED6E1B511C1107E0A1
:101CC00005D01CCFFAFF0F011B51F96EFADF0F018F
:101CD000189F020EE15C02E2E16AE552E16EE55214
:101CE000E7CFD9FF12000F01138F000EE66EE66AF0
:101CF000E66A4D0EE66E0F0EE66E73EC10F0146E93
:101D0000050EE15E1450010EE66EE66AE66A020E0A
:101D1000E66E0F0EE66E73EC10F0146E050EE15ECB
:101D2000145022C401FF0401225104E10F01100EDE
:101D3000006F11D00F01200E006F000EE66EE66AF4
:101D4000E66EE66A150EE66EE66A60EC03F0146E67
:101D5000060EE15E14501200D9CFE6FFE1CFD9FFA5
:101D6000020EE126000EDE6E040EDD6EFD0EDB506F
:101D7000E824166EFE0EDB50040DF3501624040DFD
:101D8000F350146E156A020E0F0B05E0D890153251
:101D90001432E806FBE1D89014361536D890143684
:101DA0001536D9CFE9FFDACFEAFF1450EE261550E9
:101DB000ED22DECFE9FFDDCFEAFFEF9EFD0EDB5027
:101DC0000FE1FE0EEA6ADB34FE0BEA36E96E070E1F
:101DD000E9260F0EEA22DECFEEFFDDCFEDFF0ED0BB
:101DE000FE0EEA6ADB34FE0BEA36E96E0B0EE926DC
:101DF0000F0EEA22DECFEEFFDDCFEDFFDECFE9FFF3
:101E0000DDCFEAFFEF9CDECFE9FFDDCFEAFF040E76
:101E1000E926000EEA22EF8C020EE15C02E2E16AA2
:101E2000E552E16EE552E7CFD9FF1200D9CFE6FFC8
:101E3000E1CFD9FF020EE126FE0EDB50156A4C0FF2
:101E4000146E0F0E152214C0DEFF15C0DDFFDECFAD
:101E5000E9FFDDCFEAFFFD0EDBCFEFFFDBA407D00C
:101E6000E66AFE0EDBCFE6FF77DFE552E552FD0EB8
:101E7000DBA208D0010EE66EFE0EDBCFE6FF6CDFC4
:101E8000E552E552020EE15C02E2E16AE552E16EE2
:101E9000E552E7CFD9FF1200D9CFE6FFE1CFD9FF56
:101EA000020EE126FE0EDB5020E105CFE9FF06CF52
:101EB000EAFFEE52080EEF6E05CFE9FF06CFEAFF0C
:101EC000020EE926000EEA22200EEE6E040EED6EE2
:101ED00005CFE9FF06CFEAFF8C0EEF6E0BCFE9FFCF
:101EE0000CCFEAFF840EEF6E3DD0FD0EDB50E824F0
:101EF000166EFE0EDB50040DF3501624040DF3CFC6
:101F000014F0F4CF15F0000E1426040E152214C0A0
:101F1000DEFF15C0DDFF840E146EDECFE9FFDDCFDE
:101F2000EAFF1450EF12FD0EDB50E824166EFE0E91
:101F3000DB50040DF3501624010F040DF3CF14F001
:101F4000F4CF15F0000E1426040E152214C0DEFF87
:101F500015C0DDFF840E146EDECFE9FFDDCFEAFF92
:101F60001450EF12020EE15C02E2E16AE552E16E0A
:101F7000E552E7CFD9FF1200D9CFE6FFE1CFD9FF75
:101F8000020EE126FD0EDB500FE0FE0EEA6ADB34A6
:101F9000FE0BEA36E96E0B0EE9260F0EEA22EECFB3
:101FA000DEFFEDCFDDFF0ED0FE0EEA6ADB34FE0B66
:101FB000EA36E96E070EE9260F0EEA22EECFDEFFC3
:101FC000EDCFDDFFDECFE9FFDDCFEAFF020EE92630
:101FD000000EEA22FB0EDBCFEEFFFC0EDBCFEDFFA7
:101FE000DECFE9FFDDCFEAFFEE52FA0EDBCFEFFFE7
:101FF000400E146EDECFE9FFDDCFEAFF1450EF167E
:10200000880E146EDECFE9FFDDCFEAFF1450EF1229
:10201000FD0EDB500CE0FE0EEA6ADB34FE0BEA3606
:10202000E96E0B0EE9260F0EEA22EF740BD0FE0EBE
:10203000EA6ADB34FE0BEA36E96E070EE9260F0E7C
:10204000EA22EF74DECF14F0DDCF15F014C0F3FFF9
:1020500015C0F4FF020EE15C03E200D0E16AE55234
:10206000E16EE552E7CFD9FF1200D9CFE6FFE1CF0D
:10207000D9FF010EF36EFC0EDB5004E0D890F3366E
:10208000E806FCE1F350E81C146EFD0EDBCFE9FF1F
:10209000FE0EDBCFEAFF1450EF16E552E7CFD9FF73
:1020A000120082B007D0656A0F015C6B0F01006BF4
:1020B000829800D012000F01005114E1656A0F01EF
:1020C0005C6B65B602D06586FCD70F01010E006F10
:1020D00082880F01160E5F6FD08E3B0E5C6FA28858
:0620E000A088F28E120040
:0A20E600FE0EE3CFE9FFFF0EE3CF8B
:1020F000EAFFE9CFF3FFEACFF4FFFB0EE35003E181
:10210000FC0EE35009E0FB0EE30602E2FC0EE306E0
:0A211000FD0EE350EE6EF1D7120051
:06211A00400EF36E00EE22
:1021200000F00F0E01D81200EA6002D0EE6AFCD770
:0A213000F350E9601200EE6AFCD7DC
:06213A001EEE00F02EEE87
:1021400000F0F86A0F9C98EC07F003EC00F07DECCF
:0621500000F0FBD71200B5
:017FF800A6E2
:017FF900F790
:017FFA000581
:017FFB00FF86
:017FFD00F78C
:00000001FF
