:0400000015EF00F008
:060008005E8266EF1CF0B1
:100018005E80E0CF39F00000000039C0E0FF5E905C
:060028001000AFEF1BF019
:1010000000BF05396734034D006900630072006F4B
:1010100000630068006900700020005400650063F0
:101020000068006E006F006C006F006700790020A0
:101030000049006E0063002E002E03500041005056
:101040000049002000200020002000200020002077
:101050000020002000200020002000200020002090
:101060000020002000200009022900010100C032F8
:1010700009040000020300000009211101000122FF
:101080001D00070581034000010705010340000121
:101090000600FF0901A10119012940150026FF00E2
:1010A000750895408100190129409100C012010086
:1010B0000200000008D80410100200010200010420
:1010C000030904003D50800B466E3D503D244C6E9C
:1010D0003CAE6DEF08F06FEF08F070EF08F04C8059
:1010E0004C50D8B476EF08F078EF08F08BEF08F0AA
:1010F0004C28D8A47EEF08F080EF08F088EF08F0C5
:10110000000E3A6E000E3B6E000E3C6E000E3D6E01
:101110003C8E93EF08F0000E3A6E000E3B6E000E10
:101120003C6E000E3D6E4150800B461A41504124EA
:101130004B6E40AE9EEF08F0A0EF08F0A1EF08F074
:101140004B804B50D8B4A7EF08F0A9EF08F0BCEFE4
:1011500008F04B28D8A4AFEF08F0B1EF08F0B9EFD2
:1011600008F0000E3E6E000E3F6E000E406E000E48
:10117000416E408EC4EF08F0000E3E6E000E3F6ED2
:10118000000E406E000E416E4B50D8B4CAEF08F00E
:10119000CCEF08F0D4EF08F04C50D8A4D2EF08F010
:1011A000D4EF08F0DEEF08F0000E3A6E000E3B6E52
:1011B000000E3C6E000E3D6E74EF0AF040503A0295
:1011C000F3CF51F0F4CF52F05150476E486A496A5C
:1011D0004A6A52504D6E4E6A4F6A506A3F503B0207
:1011E000F3CF51F0F4CF52F051504726000E482271
:1011F00049224A2252504D26000E4E224F225022A2
:101200003E503C02F3CF51F0F4CF52F051504726FC
:10121000000E482249224A2252504D26000E4E22EC
:101220004F22502249C04AF048C049F047C048F018
:10123000476A3E503B02F3CF51F0F4CF52F0515089
:10124000472652504822000E4922000E4A223F50A3
:101250003A02F3CF51F0F4CF52F05150472652509A
:101260004822000E4922000E4A2249C04AF048C0D6
:1012700049F047C048F0476A3E503A02F3CF51F078
:10128000F4CF52F05150472652504822000E4922C6
:10129000000E4A2240503B02F3CF51F0F4CF52F0FF
:1012A00051504D2652504E22000E4F22000E502219
:1012B0003F503C02F3CF51F0F4CF52F051504D2645
:1012C00052504E22000E4F22000E502240503C023F
:1012D000F3CF51F0F4CF52F05150426E5250436E62
:1012E000446A456A44C045F043C044F042C043F0FC
:1012F000426A42504D2643504E2244504F224550A0
:10130000502247C042F048C043F049C044F04AC0B0
:1013100045F0190E91EF09F0D8904532443243322E
:101320004232E82E8CEF09F042504D2643504E22B7
:1013300044504F224550502249C04AF048C049F01D
:1013400047C048F0476A4B504CC042F0436A4226BF
:10135000000E4322820E4224516EFF0E4320526E35
:10136000C7EF09F0D8904D364E364F3650364AAE5C
:10137000BCEF09F0BEEF09F0BFEF09F04D80D89047
:101380004736483649364A365106D8A052064FAE3F
:10139000CCEF09F0CEEF09F0B2EF09F04B6A4AAE9C
:1013A000D4EF09F0D6EF09F0FAEF09F0FF0E471479
:1013B000426EFF0E4814436EFF0E4914446E7F0EBA
:1013C0004A14456E4250431044104510D8B4EBEF18
:1013D00009F0EDEF09F0F1EF09F0010E4B6EFAEFB5
:1013E00009F04DA0F6EF09F0F8EF09F0FAEF09F077
:1013F000EDEF09F04B50D8B400EF0AF002EF0AF01D
:1014000026EF0AF0010E4D26000E4E224F225022EA
:1014100050A00DEF0AF00FEF0AF026EF0AF04DC0D2
:1014200042F04EC043F04FC044F050C045F0453448
:10143000453244324332423242C04DF043C04EF056
:1014400044C04FF045C050F0514A522A52BE31EFCD
:101450000AF0525008E15128D8A031EF0AF033EFDA
:101460000AF03DEF0AF0000E4D6E000E4E6E800E3B
:101470004F6E7F0E506E6AEF0AF052BE4AEF0AF0CE
:10148000525006E15104D8B048EF0AF04AEF0AF092
:1014900055EF0AF0000E4D6E000E4E6E000E4F6EB0
:1014A000000E506E466A6AEF0AF051C04CF0FF0E13
:1014B0004D16FF0E4E167F0E4F16000E50164CA006
:1014C00064EF0AF066EF0AF067EF0AF04F8ED890EB
:1014D0004C30506E465050124DC03AF04EC03BF06A
:1014E0004FC03CF050C03DF012001F0E33647BEF44
:1014F0000AF07DEF0AF065EF0CF065A282EF0AF0CA
:1015000084EF0AF086EF0AF065EF0CF000017051ED
:101510007111D8B48EEF0AF090EF0AF022EF0CF0C0
:1015200070C0D9FF71C0DAFFDFBE99EF0AF09BEF00
:101530000AF065EF0CF022EF0CF0829E56EF0CF0F3
:10154000828E56EF0CF076EC1CF056EF0CF0830E0A
:101550000001886FA1C13AF0A2C13BF0A3C13CF0E9
:10156000000EDDEC19F056EF0CF0800E0001886FD4
:10157000000E1EEC15F05B6A5B50020DF350890FF4
:10158000D96EDA6A5B50020D000EF324E16E010E93
:10159000F420E26EE6CF57F0E5CF58F058C057F090
:1015A000586A5750DF6E5B50020D000EF324D96E5F
:1015B000010EF420DA6E5B50020DF3508A0FE16EDB
:1015C000E26ADFCFE7FF5B2A0F0E5B64EAEF0AF007
:1015D000ECEF0AF0BCEF0AF00E500F10D8B4F3EFA6
:1015E0000AF0F5EF0AF000EF0BF00EC0D9FF0FC0C4
:1015F000DAFFDFBEFEEF0AF000EF0BF056EF0CF063
:10160000010E3A6E880E3B6E3C6A400E3D6E010E36
:101610006EEC12F03AC00EF03BC00FF056EF0CF03B
:10162000810E0001886F010E1EEC15F05B6A5B50A5
:10163000020DF350890FD96EDA6A5B50576E586A03
:10164000D89057365836200E5724E16E010E582098
:10165000E26EE6CF59F0E5CF5AF05AC059F05A6A17
:101660005950DF6E5B50576E586AD89057365836CF
:10167000200E5724D96E010E5820DA6E5B50020DF1
:10168000F3508A0FE16EE26ADFCFE7FF5B2A0F0EAD
:101690005B644DEF0BF04FEF0BF017EF0BF00E50BC
:1016A0000F10D8B456EF0BF058EF0BF063EF0BF0C0
:1016B0000EC0D9FF0FC0DAFFDFBE61EF0BF063EFA2
:1016C0000BF056EF0CF0010E3A6E880E3B6E3C6A42
:1016D000400E3D6E010E6EEC12F03AC00EF03BC0B3
:1016E0000FF056EF0CF0820E0001886F020E1EEC18
:1016F00015F05B6A5B50020DF350890FD96EDA6A00
:101700005B50576E586AD89057365836400E57245B
:10171000E16E010E5820E26EE6CF59F0E5CF5AF0A7
:101720005AC059F05A6A5950DF6E5B50576E586A6A
:10173000D89057365836400E5724D96E010E58208F
:10174000DA6E5B50020DF3508A0FE16EE26ADFCF72
:10175000E7FF5B2A0F0E5B64B0EF0BF0B2EF0BF00C
:101760007AEF0BF00E500F10D8B4B9EF0BF0BBEFBF
:101770000BF0C6EF0BF00EC0D9FF0FC0DAFFDFBED3
:10178000C4EF0BF0C6EF0BF056EF0CF0010E3A6E03
:10179000880E3B6E3C6A400E3D6E010E6EEC12F000
:1017A0003AC00EF03BC00FF056EF0CF0DFEC17F034
:1017B000850E0001886F1B50896F1AC08AF087510F
:1017C0008B6F86C08CF085518D6F84C08EF0195060
:1017D0008F6F18C090F00E500F10D8B4F2EF0BF0CE
:1017E000F4EF0BF0FFEF0BF00EC0D9FF0FC0DAFFE4
:1017F000DFBEFDEF0BF0FFEF0BF056EF0CF0010E2C
:101800003A6E880E3B6E3C6A400E3D6E010E6EECE9
:1018100012F03AC00EF03BC00FF056EF0CF0DFECC8
:1018200017F0889A8296889E56EF0CF0DFEC17F03E
:10183000888A828656EF0CF0829856EF0CF08288E8
:1018400056EF0CF00101A051800AD8B4B5EF0AF0B0
:10185000010AD8B410EF0BF0030AD8B473EF0BF001
:10186000010AD8B4A7EF0AF0070AD8B4A3EF0AF028
:10187000010AD8B4D6EF0BF0030AD8B40FEF0CF07E
:10188000010AD8B416EF0CF00F0AD8B49DEF0AF095
:10189000010AD8B4A0EF0AF01C0AD8B41CEF0CF06F
:1018A000030AD8B41FEF0CF056EF0CF0000E3A6E9E
:1018B000A00E3B6E010E3C6E400E3D6E010E6EECB6
:1018C00012F03AC070F03BC071F012000401220522
:1018D000D8A46DEF0CF06FEF0CF088EF0CF02051F6
:1018E0001F0B0009D8A477EF0CF079EF0CF088EF0C
:1018F0000CF0038E030E2119D8A481EF0CF083EFB6
:101900000CF087EF0CF0010E296E88EF0CF0296ABD
:101910002251D8A48EEF0CF090EF0CF0E8EF0DF010
:1019200020511F0B020AD8A498EF0CF09AEF0CF08C
:10193000E8EF0DF024510F0B0009D8B4A2EF0CF022
:10194000A4EF0CF0E8EF0DF024510F0B506E020ED7
:101950005060ADEF0CF0AFEF0CF0E8EF0DF0200EA3
:101960003318D8A4B6EF0CF0B8EF0CF0E8EF0DF098
:10197000038E24BFBEEF0CF0C0EF0CF0D6EF0CF0DE
:1019800024510F0B020DF3500A0FD96EDA6ADECF25
:1019900055F0DDCF56F024510F0B506E5050100F04
:1019A000D96EDA6ADF50546EEAEF0CF024510F0B57
:1019B000020DF350060FD96EDA6ADECF55F0DDCF97
:1019C00056F024510F0B506E5050120FD96EDA6A38
:1019D000DF50546E54B0EFEF0CF0F1EF0CF0F9EF74
:1019E0000CF0FB0E5514556EFF0E5614566EFEEF9E
:1019F0000CF0040E5510556E5650566E24BF03EF72
:101A00000DF005EF0DF012EF0DF024510F0B020D4C
:101A1000F3500A0FD96EDA6A55C0DEFF56C0DDFFFB
:101A20001DEF0DF024510F0B020DF350060FD96E70
:101A3000DA6A55C0DEFF56C0DDFF030E2119D8A4B7
:101A400024EF0DF026EF0DF058EF0DF055C0D9FF43
:101A500056C0DAFFDFAE2FEF0DF031EF0DF04AEF99
:101A60000DF024BF36EF0DF038EF0DF042EF0DF022
:101A700024510F0B506E5050100FD96EDA6ADF826E
:101A80004AEF0DF024510F0B506E5050120FD96ECB
:101A9000DA6ADF8255C0D9FF56C0DAFF000EDB8458
:101AA00055C0D9FF56C0DAFF000EDB8EE8EF0DF00F
:101AB000040E5518556E5650566E55C0D9FF56C077
:101AC000DAFFDFAE66EF0DF068EF0DF084EF0DF09A
:101AD00055C0D9FF56C0DAFF7F0EDF1655C0D9FFBB
:101AE00056C0DAFF000EDB8C000E496E050E486E04
:101AF00055C04AF056C04BF0000E4D6E020E4C6EB3
:101B000048EC19F08AEF0DF055C0D9FF56C0DAFF46
:101B1000000EDB8C040E5518556E5650566E54B29E
:101B200094EF0DF096EF0DF0A1EF0DF055C0D9FF39
:101B300056C0DAFFDFAE9FEF0DF0A1EF0DF0D1EF51
:101B40000DF0040124BFA7EF0DF0A9EF0DF0B3EFE6
:101B50000DF024510F0B506E5050100FD96EDA6AF1
:101B6000DF92BBEF0DF024510F0B506E5050120F4F
:101B7000D96EDA6ADF9255C0D9FF56C0DAFF3B0E44
:101B8000DF16000E496E050E486E55C04AF056C06D
:101B90004BF0000E4D6E020E4C6E48EC19F0D7EF74
:101BA0000DF055C0D9FF56C0DAFF3B0EDF16040119
:101BB00024510F0B506E516A4C0E5024526E0F0E72
:101BC0005120536E52C0D9FF53C0DAFFFE0EDF160C
:101BD00012003350D8A4EFEF0DF0F1EF0DF006EF47
:101BE0000EF0656A0F015C6B160E5F6F9F0E5D6FE6
:101BF0007B0E5C6FFDEF0DF0658665A602EF0EF0C3
:101C000004EF0EF0FCEF0DF0010E336E3304D8A498
:101C10000CEF0EF00EEF0EF01CEF0EF065BA13EFA6
:101C20000EF015EF0EF01CEF0EF0626A0F015C6B08
:101C30005C815C89020E336E62A421EF0EF023EF0B
:101C40000EF02EEF0EF00F015CA529EF0EF02BEF3A
:101C50000EF02EEF0EF06294D2EC1BF065A233EF83
:101C60000EF035EF0EF038EF0EF0A19817EF0FF0F1
:101C700062A03DEF0EF03FEF0EF04CEF0EF00F01C3
:101C80005CA145EF0EF047EF0EF04CEF0EF001ECCB
:101C900013F0040E336E629062A851EF0EF053EF12
:101CA0000EF05DEF0EF00F015CA959EF0EF05BEF47
:101CB0000EF05DEF0EF03FEC1CF062AC62EF0EF048
:101CC00064EF0EF090EF0EF00F015CAD6AEF0EF0D6
:101CD0006CEF0EF07AEF0EF0000E496E730E486E48
:101CE000000E4A6E000E4B6E000E4D6E010E4C6ED5
:101CF00048EC19F0629C0CEC1CF02550D8B483EF32
:101D00000EF085EF0EF086EF0EF025062550D8A4D4
:101D10008CEF0EF08EEF0EF090EF0EF090EC16F0D0
:101D200062AA95EF0EF097EF0EF0A1EF0EF00F0103
:101D30005CAB9DEF0EF09FEF0EF0A1EF0EF006EC06
:101D40001BF062A2A6EF0EF0A8EF0EF0BEEF0EF0B1
:101D50000F015CA3AEEF0EF0B0EF0EF0BEEF0EF091
:101D60007F0E496E4868000E4A6E000E4B6E000EE4
:101D70004D6E010E4C6E48EC19F0636A040E336030
:101D8000C4EF0EF0C6EF0EF0C9EF0EF0A19817EFFA
:101D90000FF00F015CA7CFEF0EF0D1EF0EF016EFB2
:101DA0000FF0596A62A6D7EF0EF0D9EF0EF016EFDA
:101DB0000FF064CF36F03630E832E8320F0B276E82
:101DC000629636B4E6EF0EF0E8EF0EF0EFEF0EF0AD
:101DD0002750100FD96EDA6ADF70F4EF0EF027503B
:101DE000120FD96EDA6ADF702750D8A4FAEF0EF01E
:101DF000FCEF0EF000EF0FF044EC18F00DEF0FF0D9
:101E0000000E496E720E486E360E4A6E4B6A000E18
:101E10004D6E000E4C6E48EC19F0592A030E5964B1
:101E200014EF0FF016EF0FF0D2EF0EF0A1981200A2
:101E3000486E4850D8B41FEF0FF021EF0FF043EF7A
:101E40000FF043BE28EF0FF026EF0FF043EF0FF037
:101E500040C044F041C045F042C046F043C047F0A6
:101E6000441E451E461E471E442A000E4522462299
:101E7000472244C04AF045C04BF046C04CF047C032
:101E80004DF04BEF0FF040C04AF041C04BF042C064
:101E90004CF043C04DF04050411042104310D8A4C4
:101EA00054EF0FF056EF0FF060EF0FF0000E406EA2
:101EB000000E416E000E426E000E436EF1EF0FF009
:101EC000960E496E6AEF0FF0492AD8904D324C3287
:101ED0004B324A32000E4A14446E000E4B14456ECB
:101EE000000E4C14466EFE0E4D14476E44504510C5
:101EF00046104710D8A47FEF0FF081EF0FF064EF8A
:101F00000FF08FEF0FF0492A010E4A26000E4B22E8
:101F10004C224D22D8904D324C324B324A32000E78
:101F20004A14446E000E4B14456E000E4C14466E5F
:101F3000FF0E4D14476E4450451046104710D8A46C
:101F4000A4EF0FF0A6EF0FF083EF0FF0AEEF0FF05E
:101F50004906D8904A364B364C364D364CBEB3EF18
:101F60000FF0B5EF0FF0BDEF0FF0020E4960BBEFC1
:101F70000FF0BDEF0FF0A8EF0FF049B0C2EF0FF078
:101F8000C4EF0FF0C5EF0FF04C9ED890493249C016
:101F900044F0456A466A476A44C047F0466A456A63
:101FA000446A44504A1245504B1246504C12475016
:101FB0004D124850D8B4DFEF0FF0E1EF0FF0E9EF2A
:101FC0000FF043BEE8EF0FF0E6EF0FF0E9EF0FF090
:101FD0004D8E4AC040F04BC041F04CC042F04DC065
:101FE00043F01200800E04012019D8A4FAEF0FF07C
:101FF000FCEF0FF093EF10F0C00E036E84EF10F0C3
:10200000AD0E016E0150D8A4100E026E000E056ECA
:10201000120E046E93EF10F02251D8A412EF10F0BC
:1020200014EF10F054EF10F02251040F3A6E3AC042
:10203000F6FF100EF76E000EF86E0900F5CF01F0F6
:10204000100E026E020E01243A6E000E02203B6E4C
:102050003AC0F6FF3BC0F7FF000EF86E0F0EF764B4
:1020600003D00800F55005D0F6CFE1FFF7CFE2FF2F
:10207000E750046E030E01243A6E000E02203B6E00
:102080003AC0F6FF3BC0F7FF000EF86E0F0EF76484
:1020900003D00800F55005D0F6CFE1FFF7CFE2FFFF
:1020A000E750056E93EF10F0036A93EF10F0030E04
:1020B00022615DEF10F05FEF10F054EF10F022514D
:1020C000010F3A6E3AC0F6FF100EF76E000EF86E72
:1020D0000900F5CF01F0100E026E01C0F6FF02C03C
:1020E000F7FF000EF86E0F0EF76403D00800F550EE
:1020F00005D0F6CFE1FFF7CFE2FFE7503A6E3A5056
:10210000046E056A93EF10F02351010AD8B400EF72
:1021100010F0030AD8B40CEF10F0010AD8B457EF4E
:1021200010F054EF10F0120020EE01F01650D926F6
:102130001750DA22DF503B6E3B500001635D000E0A
:102140006459D8B0A6EF10F0A8EF10F0AAEF10F085
:1021500063C03BF03B50635F000E645B3A6AC0EFC4
:1021600010F0280E3A24D96EDA6A040EDA2260C022
:10217000E1FF61C0E2FFDFCFE7FF604B612B3A2A4E
:102180003B503A5CD8A0C7EF10F0C9EF10F0B1EFA8
:1021900010F063516411D8B4D0EF10F0D2EF10F00A
:1021A0000BEF11F020EE01F01450D9261550DA2271
:1021B000080EDF6E20EE02F01450D9261550DA22F8
:1021C000280EDE6E040EDD6E16C0D9FF17C0DAFFD2
:1021D000DFBCEDEF10F0EFEF10F0FDEF10F014C0EA
:1021E000D9FF15C0DAFF480EDF6E14C0D9FF15C045
:1021F000DAFF000EDB8E34EF11F014C0D9FF15C0EA
:10220000DAFF080EDF6E14C0D9FF15C0DAFF000E2A
:10221000DB8E34EF11F020EE01F01450D92615506A
:10222000DA22080EDF6E20EE02F01450D926155087
:10223000DA22200EDE6E040EDD6E14C0D9FF15C04A
:10224000DAFF040EDF6E14C0D9FF15C0DAFF000EEE
:10225000DB8E629F2450D8A430EF11F032EF11F0E2
:1022600034EF11F090EC16F01200040120511F0B16
:10227000E806D8B43EEF11F040EF11F042EF11F054
:10228000D2EF11F02451D8B448EF11F04AEF11F019
:102290004CEF11F0D2EF11F0060E2119D8A453EF34
:1022A00011F055EF11F088EF11F079EF11F03804CB
:1022B000D8A45DEF11F05FEF11F088EF11F0790E07
:1022C000016E0150D8A4100E026E000E056E090EAC
:1022D000046EC00E036E88EF11F0900E016E015077
:1022E000D8A4100E026E000E056E1D0E046E69EF6E
:1022F00011F02351210AD8B457EF11F0030AD8B4D2
:102300006DEF11F0010AD8B488EF11F088EF11F0E9
:102310002039E832030BE806D8B491EF11F093EFBF
:1023200011F0B7EF11F0D2EF11F0350E016E026A25
:10233000000E056E010E046EC10E036ED2EF11F099
:10234000800E036E23C435F0D2EF11F0340E016E0F
:10235000026A000E056E010E046E810E036ED2EF4E
:1023600011F0800E036E22C434F0D2EF11F021512F
:10237000010AD8B4D2EF11F0030AD8B495EF11F0E6
:10238000010AD8B4A6EF11F00A0AD8B4D2EF11F0BE
:10239000030AD8B4A0EF11F0010AD8B4B1EF11F0DC
:1023A000D2EF11F01200659803BED9EF11F0DBEF08
:1023B00011F01FEF12F0000162AFE1EF11F0E3EF57
:1023C00011F0F3EF11F0020E2A6E2050D8A4EBEFBB
:1023D00011F0EDEF11F0EFEF11F0A0EC18F0226A20
:1023E000236A6DEF12F020EE01F01450D92615503B
:1023F000DA22080EDF6E20EE02F01450D9261550B6
:10240000DA22200EDE6E040EDD6E14C0D9FF15C078
:10241000DAFF0C0EDF6E14C0D9FF15C0DAFF000E14
:10242000DB8E06C0D9FF07C0DAFF040EDF6E06C0E0
:10243000D9FF07C0DAFF000EDB8E6DEF12F004014A
:1024400020AF25EF12F027EF12F041EF12F0010E4E
:102450002A6E2150D8A42FEF12F031EF12F033EF93
:1024600012F0A0EC18F0226A236A2450D8A43BEFA3
:1024700012F03DEF12F06DEF12F090EC16F06DEFF0
:1024800012F0020E2A6E20EE01F01450D9261550DB
:10249000DA22080EDF6E20EE02F01450D926155015
:1024A000DA22200EDE6E040EDD6E14C0D9FF15C0D8
:1024B000DAFF040EDF6E14C0D9FF15C0DAFF000E7C
:1024C000DB8E226A236A2450D8A469EF12F06BEFE6
:1024D00012F06DEF12F03DEF12F01200426E3A5022
:1024E000D8B475EF12F077EF12F083EF12F042508C
:1024F000020DF350060FD96EDA6ADECF43F0DDCF5E
:1025000044F08DEF12F04250020DF3500A0FD96ED5
:10251000DA6ADECF43F0DDCF44F043504410D8A454
:1025200094EF12F096EF12F09CEF12F0000E3A6E5C
:10253000000E3B6E00EF13F020EE02F04350D92660
:102540004450DA223BC0DEFF3CC0DDFF20EE01F04C
:102550004350D9264450DA223DC0DFFF43C0D9FFA3
:1025600044C0DAFF400EDF1643C0D9FF44C0DAFF93
:10257000000EDB8643C0D9FF44C0DAFF000EDB8EBD
:102580003A50D8B4C6EF12F0C8EF12F0E3EF12F0F1
:102590004250020DF350060FD96EDA6ADECF3EF0DC
:1025A000DDCF3FF0040E3E18406E3F50416E42506A
:1025B000020DF350060FD96EDA6A40C0DEFF41C04B
:1025C000DDFFFCEF12F04250020DF3500A0FD96EFE
:1025D000DA6ADECF3EF0DDCF3FF0040E3E18406EEB
:1025E0003F50416E4250020DF3500A0FD96EDA6A25
:1025F00040C0DEFF41C0DDFF43C03AF044C03BF0C5
:102600001200A098636A626A0F014C6B4D0E3A6E1D
:102610000F0E3B6E000E3D6E000E3C6E000E3F6EC8
:10262000010E3E6EF0EC1BF0160E0F015F6F9F0E59
:102630005D6F7B0E5C6F426A4250040D000EF32406
:10264000D96E040EF420DA6EDE6ADE6ADE6ADD6AB6
:10265000422A070E42642FEF13F031EF13F01CEF04
:1026600013F0658C0F015E6B6598659C6296036A3A
:102670000001626B000E646F000E636F62B643EF81
:1026800013F045EF13F036EF13F0010E236E010E39
:10269000226E216A206A286A426A4250020DF35073
:1026A000060FD96EDA6ADE6ADD6A4250020DF35017
:1026B0000A0FD96EDA6ADE6ADD6A4250120FD96EED
:1026C000DA6ADF6A4250100FD96EDA6ADF6A422A8C
:1026D000010E42646EEF13F070EF13F04DEF13F044
:1026E000080E066E040E076E160E0F014C6F040ED8
:1026F0000401036F200E026F080E016F040E006FBD
:10270000008F386A000E00016C6F000E6D6F000EB6
:102710006E6F000E6F6F1F6A336A1200080E3A6EFA
:10272000055007E1080E045CD8B099EF13F09BEF59
:1027300013F0B3EF13F004C03AF02B50D8A4A3EF7A
:1027400013F0A5EF13F0A9EF13F0010E2B6EB3EF0A
:1027500013F02B04D8A4AFEF13F0B1EF13F0B3EFE5
:1027600013F0020E2B6E3A50045E000E055A20EE56
:1027700001F00650D9260750DA223AC0DFFF280EB2
:102780000001766F040E776F03B0C9EF13F0CBEF43
:1027900013F00FEF14F0E9EF13F001C0F6FF02C0E1
:1027A000F7FF000EF86E76C0D9FF77C0DAFF0F0E84
:1027B000F76403D00800F55005D0F6CFE1FFF7CF5E
:1027C000E2FFE750DF6E014A022A0001764B772BC9
:1027D0003A063A50D8A4EFEF13F0F1EF13F0CDEF33
:1027E00013F017EF14F001C0F6FF02C0F7FF000E60
:1027F000F86E76C0D9FF77C0DAFF0F0EF76403D00A
:102800000800F55005D0F6CFE1FFF7CFE2FFE75023
:10281000DF6E014A022A0001764B772B3A063A50C6
:10282000D8A415EF14F017EF14F0F3EF13F0120023
:1028300006C0D9FF07C0DAFF000EDFBC010E3B6EF9
:10284000040E0618066E0750076E080E3318D8A43B
:102850002CEF14F02EEF14F041EF14F0040122518C
:102860007F0B0F015E6F5E51D8B439EF14F03BEF70
:1028700014F03FEF14F0100E336E41EF14F0040E1D
:10288000336E2A04D8A447EF14F049EF14F090EF08
:1028900014F020EE02F00650D9260750DA22280E56
:1028A000DE6E040EDD6E8EEC13F0020E2B18D8A433
:1028B0005CEF14F05EEF14F06CEF14F006C0D9FF7B
:1028C00007C0DAFF040EDF6E06C0D9FF07C0DAFFCB
:1028D000000EDB8E9AEF14F03B50D8A472EF14F088
:1028E00074EF14F082EF14F006C0D9FF07C0DAFFCE
:1028F000480EDF6E06C0D9FF07C0DAFF000EDB8E80
:102900009AEF14F006C0D9FF07C0DAFF080EDF6E99
:1029100006C0D9FF07C0DAFF000EDB8E9AEF14F075
:10292000000162AF96EF14F098EF14F099EF14F0F5
:10293000629F2A6A12003C343D34436E4350D8A44F
:10294000A4EF14F0A6EF14F0B0EF14F0000E3A6EFE
:10295000000E3B6E000E3C6E000E3D6E1DEF15F03E
:102960003AC03EF03BC03FF03CC040F03DC041F0BB
:10297000200EC0EF14F0D890413240323F323E3248
:10298000E82EBBEF14F03E50426E3C8EFF0E3A161E
:10299000FF0E3B16FF0E3C16000E3D16960E435ED4
:1029A00043BED7EF14F0D5EF14F0EDEF14F0435021
:1029B000800A970FD8B0DFEF14F0E1EF14F0E3EFE7
:1029C00014F0A6EF14F0D8903D323C323B323A324C
:1029D000433EE3EF14F005EF15F01F0E4364F3EFF1
:1029E00014F0F5EF14F0FDEF14F0A6EF14F0D8900A
:1029F0003A363B363C363D3643064350D8A403EFC7
:102A000015F005EF15F0F7EF14F04250D8B40BEFC6
:102A100015F00DEF15F015EF15F03D1E3C1E3B1E99
:102A20003A6C000E3B223C223D223AC03AF03BC0B9
:102A30003BF03CC03CF03DC03DF01200C250C30B27
:102A4000C26EC2502C09C26E37EC1BF03AC01AF0AD
:102A50003BC01BF0426A42509AEC1AF037EC1BF074
:102A60004250020D000EF324D96E010EF420DA6EEE
:102A70003AC0DEFF3BC0DDFF422A0F0E426443EF47
:102A800015F045EF15F02BEF15F0C250C30BC26ED9
:102A9000C2502809C26E37EC1BF03AC01AF03BC096
:102AA0001BF0426A42509AEC1AF037EC1BF042508D
:102AB000406E416AD89040364136200E4024D96E8F
:102AC000010E4120DA6E3AC0DEFF3BC0DDFF422A34
:102AD0000F0E42646EEF15F070EF15F052EF15F027
:102AE000C250C30BC26EC2501C09C26E37EC1BF041
:102AF0003AC01AF03BC01BF0426A42509AEC1AF0FE
:102B000037EC1BF04250406E416AD8904036413657
:102B1000400E4024D96E010E4120DA6E3AC0DEFF2D
:102B20003BC0DDFF422A0F0E426499EF15F09BEF88
:102B300015F07DEF15F0120004012039E832030B87
:102B40000009D8B4A6EF15F0A8EF15F0E9EF15F0DD
:102B500018EF16F0038E080E336E18EF16F0F2EC35
:102B60000FF018EF16F075EC17F018EF16F0380E9E
:102B7000016E026A0380010E046E038E18EF16F0D8
:102B800019EC16F018EF16F066EC0CF018EF16F0D2
:102B90002451370F576E57C001F0026ABAEF15F093
:102BA000038E2451370FD96EDA6A22C4DFFF18EF83
:102BB00016F0000E496E020E486E000E4A6E000EB0
:102BC0004B6E000E4D6E000E4C6E48EC19F018EF77
:102BD00016F02151000AD8B4C0EF15F0010AD8B49C
:102BE000C4EF15F0020AD8B4C4EF15F0060AD8B441
:102BF000AAEF15F0030AD8B4AFEF15F0010AD8B464
:102C0000D9EF15F00F0AD8B4B7EF15F0010AD8B410
:102C1000B3EF15F0030AD8B4C8EF15F0010AD8B421
:102C2000D0EF15F0070AD8B418EF16F018EF16F029
:102C300012000401286B296B71EF16F0038E290432
:102C4000D8A425EF16F027EF16F081EF16F02883B1
:102C500081EF16F0038E81EF16F0038E24510F0BD7
:102C60000009D8B436EF16F038EF16F081EF16F001
:102C700024BF3DEF16F03FEF16F04CEF16F0245155
:102C80000F0B020DF3500A0FD96EDA6ADECF3AF05D
:102C9000DDCF3BF057EF16F024510F0B020DF35030
:102CA000060FD96EDA6ADECF3AF0DDCF3BF03AC0DC
:102CB000D9FF3BC0DAFFDFAE60EF16F062EF16F02F
:102CC00081EF16F03AC0D9FF3BC0DAFFDFA46BEF0B
:102CD00016F06DEF16F081EF16F0010E286F81EF00
:102CE00016F020511F0B000AD8B41EEF16F0010A8F
:102CF000D8B42AEF16F0030AD8B42DEF16F081EFFE
:102D000016F003AE86EF16F088EF16F08FEF16F090
:102D1000280E016E040E026E0380020E046E120075
:102D20002350D8A496EF16F098EF16F005EF17F0A1
:102D3000010E236E2250D8A4A0EF16F0A2EF16F0D9
:102D400005EF17F0010E226E020E2A18D8A4ABEF81
:102D500016F0ADEF16F0C2EF16F020EE01F00650BF
:102D6000D9260750DA22DF6A06C0D9FF07C0DAFF8A
:102D7000480EDF6E06C0D9FF07C0DAFF000EDB8EFB
:102D800005EF17F02A04D8A4C8EF16F0CAEF16F022
:102D900005EF17F0266A20EE01F01650D9261750DD
:102DA000DA22080EDF6E20EE02F01650D9261750F8
:102DB000DA22200EDE6E040EDD6E16C0D9FF17C0BB
:102DC000DAFF040EDF6E16C0D9FF17C0DAFF000E5F
:102DD000DB8E010E266E20EE01F01450D926155020
:102DE000DA22080EDF6E20EE02F01450D9261550BC
:102DF000DA22200EDE6E040EDD6E14C0D9FF15C07F
:102E0000DAFF800EDF6E05EF17F0120061EF17F0AA
:102E10002C50D8B40EEF17F010EF17F015EF17F095
:102E2000010E316E2C6A74EF17F05C502D242D6E5C
:102E30002E6A010E316E828A74EF17F02E2A2D5001
:102E40002E5CD8A026EF17F028EF17F074EF17F0DC
:102E5000020E316E829A74EF17F02E2A2F502E5CDC
:102E6000D8A035EF17F037EF17F074EF17F0030E17
:102E7000316E74EF17F0316A2E6A5C50800A7F0F52
:102E8000D8A045EF17F047EF17F053EF17F02F508A
:102E90002D18D8A44EEF17F050EF17F074EF17F07D
:102EA0005C6874EF17F02D50D8A459EF17F05BEF62
:102EB00017F074EF17F0010E5C6E010E2C6E74EFBC
:102EC00017F03150000AD8B408EF17F0010AD8B44F
:102ED0001EEF17F0030AD8B42DEF17F0010AD8B48B
:102EE0003BEF17F074EF17F01200038E4D0E3A6EA1
:102EF0000F0E3B6E000E3D6E000E3C6E000E3F6EE0
:102F0000010E3E6EF0EC1BF0000E3A6E040E3B6EAE
:102F1000000E3D6E000E3C6E000E3F6E200E3E6EAB
:102F2000F0EC1BF0658C506A5050120FD96EDA6AC3
:102F3000DF6A5050100FD96EDA6ADF6A502A010E2C
:102F40005064A5EF17F0A7EF17F094EF17F0370EC6
:102F50003A6E3B6A000E3D6E000E3C6E000E3F6EF8
:102F6000010E3E6EF0EC1BF0659C080E066E040E22
:102F7000076E000E166E040E176E16C014F017C002
:102F800015F022C438F03850D8A4C9EF17F0CBEFB1
:102F900017F0CFEF17F0100E336EDEEF17F0000EC4
:102FA000496E010E486E380E4A6E4B6A000E4D6E29
:102FB000010E4C6E48EC19F0200E336E1200C25018
:102FC000C30BC26EC2CFC2FF37EC1BF03AC01AF07F
:102FD0003BC01BF0C250C30BC26EC2500409C26E8C
:102FE00037EC1BF03AC086F03BC087F0C250C30BF1
:102FF000C26EC2503C09C26E37EC1BF03AC040F0C2
:103000003BC041F0426A436A000E18EC0FF040C02A
:1030100053F041C054F042C055F043C056F053C085
:103020003AF054C03BF055C03CF056C03DF0A40E01
:103030003E6E700E3F6E7D0E406E3F0E416E62EC36
:1030400008F03AC053F03BC054F03CC055F03DC0CE
:1030500056F053C03AF054C03BF055C03CF056C057
:103060003DF09BEC14F03AC084F03BC085F0C250B8
:10307000C30BC26EC2503C09C26E37EC1BF03AC0A3
:1030800018F03BC019F012002D0E256E36C058F016
:10309000FD0E5816D8A44FEF18F051EF18F093EF2B
:1030A00018F036C058F0D89058323F0E5816585085
:1030B000040D000EF324166E040EF420176E16C0D5
:1030C00014F017C015F0040E1418146E1550156E78
:1030D00016C0D9FF17C0DAFFDF30E8320F0B0D0A38
:1030E000D8A475EF18F077EF18F08FEF18F0200ED6
:1030F0003A6E040E3B6E20EE02F01650D9261750A1
:10310000DA22DECF3CF0DDCF3DF0000E3F6E080E40
:103110003E6E61EC1BF022EC1AF09FEF18F062ECAF
:103120001AF09FEF18F03650FD0B040AD8A49BEF5D
:1031300018F09DEF18F09FEF18F018EC14F0120043
:10314000216A206A020E2A18D8A4A9EF18F0ABEF62
:1031500018F0CBEF18F020EE01F01450D9261550DE
:10316000DA22080EDF6E20EE02F01450D926155038
:10317000DA22280EDE6E040EDD6E14C0D9FF15C0F3
:10318000DAFF480EDF6E14C0D9FF15C0DAFF000E5B
:10319000DB8EF3EF18F004500401265D055027592B
:1031A000D8B0D5EF18F0D7EF18F0DBEF18F026C441
:1031B00004F027C405F08EEC13F020EE02F0065068
:1031C000D9260750DA22280EDE6E040EDD6E06C008
:1031D000D9FF07C0DAFF480EDF6E06C0D9FF07C06F
:1031E000DAFF000EDB8E1200416E000E426E040EFE
:1031F000436E3A503B6E3C6AD8903B363C36415069
:103200003D6E3E6AD8903D363E36D8903D363E36CD
:103210003B503D243F6E3C503E20406ED8903F36A0
:103220004036D8903F3640363F50422640504322E9
:1032300042C0D9FF43C0DAFFDF9E3A50D8A423EF43
:1032400019F025EF19F031EF19F04150020DF3504C
:103250000A0FD96EDA6A42C0DEFF43C0DDFF3BEFE2
:1032600019F04150020DF350060FD96EDA6A42C0D0
:10327000DEFF43C0DDFF42C0D9FF43C0DAFFDF9C61
:1032800020EE04F04250D9264350DA22DF8C12009F
:103290005CEF19F0010E55EC1CF095EF19F0020EE1
:1032A00055EC1CF095EF19F026EC1CF095EF19F099
:1032B00035EC11F095EF19F048C04EF049C04FF0D1
:1032C0004F50000AD8B46BEF19F07F0AD8B48EEFD4
:1032D00019F095EF19F04E50010AD8B454EF19F0D7
:1032E000030AD8B495EF19F0010AD8B458EF19F0D1
:1032F000060AD8B495EF19F0770AD8B495EF19F00B
:10330000010AD8B495EF19F0070AD8B44FEF19F0B5
:10331000010AD8B44AEF19F095EF19F04E50FF0AA0
:10332000D8B495EF19F095EF19F01200230E926EB4
:10333000C00E936E010E946E956A966A9768F00EB1
:10334000986EC00E996E9A6AC098010EC26E8E0E6B
:10335000C16EC088C16AC26AC098889482988296F9
:10336000889E0F0EC112020E3B6E580E3A6E9B8C59
:103370003A06D8A03B063A2806E13B28D8A4C3EF7A
:1033800019F0C5EF19F0B8EF19F0C088C168C2682C
:10339000C098889AD59CD596D59AD594D582D58053
:1033A000D58EF294F28A326A316A2E6AB40E2F6E8A
:1033B0002D6A0A0E5C6E2C6A1200836A87828792DD
:1033C0008780879084848494848684968488849873
:1033D000848A849A3CC083FF06EF1AF08782879222
:1033E00021EF1AF08484849421EF1AF08488849861
:1033F00021EF1AF08780879021EF1AF08486849657
:1034000021EF1AF0848A849A21EF1AF03B50010AC6
:10341000D8B4EEEF19F0030AD8B4F2EF19F0010AAC
:10342000D8B4F6EF19F0070AD8B4FAEF19F0010A88
:10343000D8B4FEEF19F0030AD8B402EF1AF021EF66
:103440001AF012002B6A246A216A206A266A2A6A04
:1034500006C0D9FF07C0DAFF7F0EDF16040E06187C
:10346000066E0750076E06C0D9FF07C0DAFF7F0E51
:10347000DF16040E0618066E0750076E14C0D9FF3B
:1034800015C0DAFF7F0EDF16036A000E056E000E10
:10349000046E0001626B000E646F000E636F9CECA3
:1034A00015F0000E496E030E486E000E4A6E000EB7
:1034B0004B6E000E4D6E000E4C6E48EC19F0D3ECC6
:1034C00011F01200020E2A18D8A469EF1AF06BEF5F
:1034D0001AF06FEF1AF094EC10F099EF1AF02A6AD4
:1034E0002650D8A476EF1AF078EF1AF098EF1AF079
:1034F00020EE01F01450D9261550DA22080EDF6EA6
:1035000020EE02F01450D9261550DA22200EDE6E7D
:10351000040EDD6E14C0D9FF15C0DAFF0C0EDF6E8D
:1035200014C0D9FF15C0DAFF000EDB8E99EF1AF038
:10353000266A12003B6E3BC03AF0010E3A168650E6
:103540003A18FE0B3A18866E3BC03AF0D8903A32E1
:10355000010E3A163A4686503A18FD0B3A18866E16
:103560003BC03AF0D8903A32D8903A32010E3A162F
:103570003A463A4686503A18FB0B3A18866E3BC0DC
:103580003AF0D8903A32D8903A32D8903A32010E86
:103590003A163A463A463A4686503A18F70B3A18DF
:1035A000866E120096EC19F001EC13F084EC1CF01E
:1035B00086EC1CF0829EE9EC0DF006EC17F0450E4F
:1035C000185C020E1958D8A0E8EF1AF0EAEF1AF0CA
:1035D000EDEF1AF0888EEEEF1AF0889E1F0E33641E
:1035E000F4EF1AF0F6EF1AF0FDEF1AF065A2FBEF18
:1035F0001AF0FDEF1AF000EF1BF00000DBEF1AF0FD
:1036000075EC0AF0DBEF1AF015EF00F00F014CA19A
:103610000CEF1BF00EEF1BF035EF1BF016C0D9FFBF
:1036200017C0DAFF800EDE18D8A419EF1BF01BEFCD
:103630001BF034EF1BF006C0D9FF07C0DAFF840E81
:10364000DE18D8A426EF1BF028EF1BF034EF1BF098
:1036500016C0D9FF17C0DAFF0C0EDF6E16C0D9FFF7
:1036600017C0DAFF000EDB8E4C91629A1200C28006
:10367000000E3F6E000E3E6E00003E4A3F2A3FBEE7
:103680004BEF1BF03F5009E1140E3E5CD8A04BEF0E
:103690001BF04DEF1BF03CEF1BF000000000C2825E
:1036A000C2B255EF1BF057EF1BF050EF1BF0C450A8
:1036B0003D6E3C6AC3503C243A6E000E3D203B6E8A
:1036C00012003CC042F03DC043F03AC040F03BC065
:1036D00041F07BEF1BF042C0D9FF43C0DAFFDF505F
:1036E000446E424A432A40C0D9FF41C0DAFF44C079
:1036F000DFFF404A412A3E06D8A03F063E2806E1A9
:103700003F28D8A486EF1BF088EF1BF06BEF1BF06F
:103710001200476E44A48FEF1BF091EF1BF096EF61
:103720001BF0000E3A6E4750F4EC18F044A29BEFE9
:103730001BF09DEF1BF0A2EF1BF0010E3A6E4750FD
:10374000F4EC18F04C0E4724456E466A0F0E4622E4
:1037500045C0D9FF46C0DAFF44C0DFFF1200100E9B
:10376000F66E390EF76E000EF86E0900F5CF5CF0BC
:103770000900F5CF5DF001EE00F0E00EEE6AE8061C
:10378000FDE100EE60F0680EEE6AE806FDE100EE95
:1037900001F0380EEE6AE806FDE15E905E920001EF
:1037A000D2EF1AF0286A000E496E740E486E000EB1
:1037B0004A6E000E4B6E000E4D6E000E4C6E48ECC5
:1037C00019F065920F015C95E7EF1BF0629462B40B
:1037D000ECEF1BF0EEEF1BF0E6EF1BF01F6A1200A0
:1037E0003AC040F03BC041F0FEEF1BF040C0D9FFB3
:1037F00041C0DAFF3CC0DFFF404A412A3E06D8A064
:103800003F063E2806E13F28D8A409EF1CF00BEF45
:103810001CF0F6EF1BF01200010E00016C27000EE9
:103820006D236E236F232850D8A419EF1CF01BEFD3
:103830001CF025EF1CF01F2A1F50D8A422EF1CF00B
:1038400024EF1CF025EF1CF01F681200000E0E6E16
:10385000000E0F6E1E0E446E010E89EC1BF0000E62
:103860003A6EA00E3B6E010E3C6E400E3D6E010E98
:103870006EEC12F03AC070F03BC071F012000F0114
:103880005C8562986582010E286E1F6A000E496E83
:10389000750E486E000E4A6E000E4B6E000E4D6E99
:1038A000000E4C6E48EC19F012003A6E3A50000AC5
:1038B000D8B465EF1CF0010AD8B465EF1CF0030A18
:1038C000D8B465EF1CF065EF1CF01200F2A46BEFAA
:1038D0001CF06DEF1CF074EF1CF0F294D59E920E6C
:1038E000D66EFE0ED76ED58E5E921100836A8782E9
:1038F0008792878087908484849484868496848841
:103900008498848A849A120087941200849C1200FE
:023910000A01AA
:020000040001F9
:06FFF800A8F705FFF8F771
:00000001FF
